{
  "_format": "hh-sol-artifact-1",
  "contractName": "ConfidentialWeatherAggregator",
  "sourceName": "contracts/ConfidentialWeatherAggregator.sol",
  "abi": [
    {
      "inputs": [],
      "stateMutability": "nonpayable",
      "type": "constructor"
    },
    {
      "inputs": [],
      "name": "HandlesAlreadySavedForRequestID",
      "type": "error"
    },
    {
      "anonymous": false,
      "inputs": [
        {
          "indexed": true,
          "internalType": "uint256",
          "name": "forecastId",
          "type": "uint256"
        },
        {
          "indexed": false,
          "internalType": "uint256",
          "name": "participatingStations",
          "type": "uint256"
        },
        {
          "indexed": false,
          "internalType": "uint256",
          "name": "timestamp",
          "type": "uint256"
        }
      ],
      "name": "RegionalForecastGenerated",
      "type": "event"
    },
    {
      "anonymous": false,
      "inputs": [
        {
          "indexed": true,
          "internalType": "uint256",
          "name": "stationId",
          "type": "uint256"
        }
      ],
      "name": "StationDeactivated",
      "type": "event"
    },
    {
      "anonymous": false,
      "inputs": [
        {
          "indexed": true,
          "internalType": "uint256",
          "name": "stationId",
          "type": "uint256"
        },
        {
          "indexed": true,
          "internalType": "address",
          "name": "stationAddress",
          "type": "address"
        },
        {
          "indexed": false,
          "internalType": "string",
          "name": "location",
          "type": "string"
        }
      ],
      "name": "StationRegistered",
      "type": "event"
    },
    {
      "anonymous": false,
      "inputs": [
        {
          "indexed": false,
          "internalType": "bool",
          "name": "enabled",
          "type": "bool"
        }
      ],
      "name": "TimeWindowToggled",
      "type": "event"
    },
    {
      "anonymous": false,
      "inputs": [
        {
          "indexed": true,
          "internalType": "uint256",
          "name": "stationId",
          "type": "uint256"
        },
        {
          "indexed": true,
          "internalType": "uint256",
          "name": "forecastId",
          "type": "uint256"
        },
        {
          "indexed": false,
          "internalType": "uint256",
          "name": "timestamp",
          "type": "uint256"
        }
      ],
      "name": "WeatherDataSubmitted",
      "type": "event"
    },
    {
      "inputs": [],
      "name": "GATEWAY_CONTRACT_ADDRESS",
      "outputs": [
        {
          "internalType": "address",
          "name": "",
          "type": "address"
        }
      ],
      "stateMutability": "view",
      "type": "function"
    },
    {
      "inputs": [],
      "name": "canGenerateForecast",
      "outputs": [
        {
          "internalType": "bool",
          "name": "",
          "type": "bool"
        }
      ],
      "stateMutability": "view",
      "type": "function"
    },
    {
      "inputs": [],
      "name": "canSubmitData",
      "outputs": [
        {
          "internalType": "bool",
          "name": "",
          "type": "bool"
        }
      ],
      "stateMutability": "view",
      "type": "function"
    },
    {
      "inputs": [
        {
          "internalType": "uint256",
          "name": "stationId",
          "type": "uint256"
        }
      ],
      "name": "deactivateStation",
      "outputs": [],
      "stateMutability": "nonpayable",
      "type": "function"
    },
    {
      "inputs": [],
      "name": "forecastCount",
      "outputs": [
        {
          "internalType": "uint256",
          "name": "",
          "type": "uint256"
        }
      ],
      "stateMutability": "view",
      "type": "function"
    },
    {
      "inputs": [],
      "name": "generateRegionalForecast",
      "outputs": [],
      "stateMutability": "nonpayable",
      "type": "function"
    },
    {
      "inputs": [],
      "name": "getActiveStationCount",
      "outputs": [
        {
          "internalType": "uint256",
          "name": "",
          "type": "uint256"
        }
      ],
      "stateMutability": "view",
      "type": "function"
    },
    {
      "inputs": [],
      "name": "getCurrentForecastInfo",
      "outputs": [
        {
          "internalType": "uint256",
          "name": "currentForecastId",
          "type": "uint256"
        },
        {
          "internalType": "bool",
          "name": "canSubmit",
          "type": "bool"
        },
        {
          "internalType": "bool",
          "name": "canGenerate",
          "type": "bool"
        },
        {
          "internalType": "uint256",
          "name": "submittedStations",
          "type": "uint256"
        }
      ],
      "stateMutability": "view",
      "type": "function"
    },
    {
      "inputs": [],
      "name": "getCurrentHour",
      "outputs": [
        {
          "internalType": "uint256",
          "name": "",
          "type": "uint256"
        }
      ],
      "stateMutability": "view",
      "type": "function"
    },
    {
      "inputs": [
        {
          "internalType": "uint256",
          "name": "forecastId",
          "type": "uint256"
        }
      ],
      "name": "getRegionalForecast",
      "outputs": [
        {
          "internalType": "uint32",
          "name": "temperature",
          "type": "uint32"
        },
        {
          "internalType": "uint32",
          "name": "humidity",
          "type": "uint32"
        },
        {
          "internalType": "uint32",
          "name": "pressure",
          "type": "uint32"
        },
        {
          "internalType": "uint8",
          "name": "windSpeed",
          "type": "uint8"
        },
        {
          "internalType": "uint256",
          "name": "timestamp",
          "type": "uint256"
        },
        {
          "internalType": "uint256",
          "name": "participatingStations",
          "type": "uint256"
        },
        {
          "internalType": "bool",
          "name": "isGenerated",
          "type": "bool"
        }
      ],
      "stateMutability": "view",
      "type": "function"
    },
    {
      "inputs": [
        {
          "internalType": "uint256",
          "name": "stationId",
          "type": "uint256"
        }
      ],
      "name": "getStationInfo",
      "outputs": [
        {
          "internalType": "address",
          "name": "stationAddress",
          "type": "address"
        },
        {
          "internalType": "string",
          "name": "location",
          "type": "string"
        },
        {
          "internalType": "bool",
          "name": "isActive",
          "type": "bool"
        },
        {
          "internalType": "uint256",
          "name": "lastSubmissionTime",
          "type": "uint256"
        },
        {
          "internalType": "uint256",
          "name": "submissionCount",
          "type": "uint256"
        }
      ],
      "stateMutability": "view",
      "type": "function"
    },
    {
      "inputs": [
        {
          "internalType": "uint256",
          "name": "stationId",
          "type": "uint256"
        }
      ],
      "name": "hasStationSubmitted",
      "outputs": [
        {
          "internalType": "bool",
          "name": "",
          "type": "bool"
        }
      ],
      "stateMutability": "view",
      "type": "function"
    },
    {
      "inputs": [],
      "name": "owner",
      "outputs": [
        {
          "internalType": "address",
          "name": "",
          "type": "address"
        }
      ],
      "stateMutability": "view",
      "type": "function"
    },
    {
      "inputs": [
        {
          "internalType": "uint256",
          "name": "requestId",
          "type": "uint256"
        },
        {
          "internalType": "uint32",
          "name": "totalTemperature",
          "type": "uint32"
        },
        {
          "internalType": "uint32",
          "name": "totalHumidity",
          "type": "uint32"
        },
        {
          "internalType": "uint32",
          "name": "totalPressure",
          "type": "uint32"
        },
        {
          "internalType": "uint32",
          "name": "totalWindSpeed",
          "type": "uint32"
        }
      ],
      "name": "processForecastResult",
      "outputs": [],
      "stateMutability": "nonpayable",
      "type": "function"
    },
    {
      "inputs": [],
      "name": "protocolId",
      "outputs": [
        {
          "internalType": "uint256",
          "name": "",
          "type": "uint256"
        }
      ],
      "stateMutability": "pure",
      "type": "function"
    },
    {
      "inputs": [
        {
          "internalType": "uint256",
          "name": "",
          "type": "uint256"
        }
      ],
      "name": "regionalForecasts",
      "outputs": [
        {
          "internalType": "uint32",
          "name": "aggregatedTemperature",
          "type": "uint32"
        },
        {
          "internalType": "uint32",
          "name": "aggregatedHumidity",
          "type": "uint32"
        },
        {
          "internalType": "uint32",
          "name": "aggregatedPressure",
          "type": "uint32"
        },
        {
          "internalType": "uint8",
          "name": "aggregatedWindSpeed",
          "type": "uint8"
        },
        {
          "internalType": "uint256",
          "name": "timestamp",
          "type": "uint256"
        },
        {
          "internalType": "uint256",
          "name": "participatingStations",
          "type": "uint256"
        },
        {
          "internalType": "bool",
          "name": "isGenerated",
          "type": "bool"
        }
      ],
      "stateMutability": "view",
      "type": "function"
    },
    {
      "inputs": [
        {
          "internalType": "address",
          "name": "stationAddress",
          "type": "address"
        },
        {
          "internalType": "string",
          "name": "location",
          "type": "string"
        }
      ],
      "name": "registerStation",
      "outputs": [],
      "stateMutability": "nonpayable",
      "type": "function"
    },
    {
      "inputs": [
        {
          "internalType": "bool",
          "name": "enabled",
          "type": "bool"
        }
      ],
      "name": "setTimeWindowEnabled",
      "outputs": [],
      "stateMutability": "nonpayable",
      "type": "function"
    },
    {
      "inputs": [
        {
          "internalType": "address",
          "name": "",
          "type": "address"
        }
      ],
      "name": "stationAddressToId",
      "outputs": [
        {
          "internalType": "uint256",
          "name": "",
          "type": "uint256"
        }
      ],
      "stateMutability": "view",
      "type": "function"
    },
    {
      "inputs": [],
      "name": "stationCount",
      "outputs": [
        {
          "internalType": "uint256",
          "name": "",
          "type": "uint256"
        }
      ],
      "stateMutability": "view",
      "type": "function"
    },
    {
      "inputs": [
        {
          "internalType": "uint256",
          "name": "",
          "type": "uint256"
        },
        {
          "internalType": "uint256",
          "name": "",
          "type": "uint256"
        }
      ],
      "name": "stationData",
      "outputs": [
        {
          "internalType": "euint32",
          "name": "encryptedTemperature",
          "type": "bytes32"
        },
        {
          "internalType": "euint32",
          "name": "encryptedHumidity",
          "type": "bytes32"
        },
        {
          "internalType": "euint32",
          "name": "encryptedPressure",
          "type": "bytes32"
        },
        {
          "internalType": "euint8",
          "name": "encryptedWindSpeed",
          "type": "bytes32"
        },
        {
          "internalType": "uint256",
          "name": "timestamp",
          "type": "uint256"
        },
        {
          "internalType": "bool",
          "name": "isSubmitted",
          "type": "bool"
        }
      ],
      "stateMutability": "view",
      "type": "function"
    },
    {
      "inputs": [
        {
          "internalType": "uint32",
          "name": "temperature",
          "type": "uint32"
        },
        {
          "internalType": "uint32",
          "name": "humidity",
          "type": "uint32"
        },
        {
          "internalType": "uint32",
          "name": "pressure",
          "type": "uint32"
        },
        {
          "internalType": "uint8",
          "name": "windSpeed",
          "type": "uint8"
        }
      ],
      "name": "submitWeatherData",
      "outputs": [],
      "stateMutability": "nonpayable",
      "type": "function"
    },
    {
      "inputs": [],
      "name": "timeWindowEnabled",
      "outputs": [
        {
          "internalType": "bool",
          "name": "",
          "type": "bool"
        }
      ],
      "stateMutability": "view",
      "type": "function"
    },
    {
      "inputs": [
        {
          "internalType": "uint256",
          "name": "",
          "type": "uint256"
        }
      ],
      "name": "weatherStations",
      "outputs": [
        {
          "internalType": "address",
          "name": "stationAddress",
          "type": "address"
        },
        {
          "internalType": "string",
          "name": "location",
          "type": "string"
        },
        {
          "internalType": "bool",
          "name": "isActive",
          "type": "bool"
        },
        {
          "internalType": "uint256",
          "name": "lastSubmissionTime",
          "type": "uint256"
        },
        {
          "internalType": "uint256",
          "name": "submissionCount",
          "type": "uint256"
        }
      ],
      "stateMutability": "view",
      "type": "function"
    }
  ],
  "bytecode": "0x608060405234801561000f575f80fd5b5061018a6100ae604080516080810182525f808252602082018190529181018290526060810191909152506040805160808101825273687820221192c5b662b25367f70076a37bc79b6c815273848b0066793bcc60346da1f49049357399b8d595602082015273a02cda4ca3a71d7c46997716f4283aa851c2881291810191909152731364cbbf2cdf5032c47d8226a6f6fbd2afcdacac606082015290565b80517f9e7b61f58c47dc699ac88507c4f5bb9f121c03808c5676a8078fe583e464970080546001600160a01b03199081166001600160a01b039384161790915560208301517f9e7b61f58c47dc699ac88507c4f5bb9f121c03808c5676a8078fe583e46497018054831691841691909117905560408301517f9e7b61f58c47dc699ac88507c4f5bb9f121c03808c5676a8078fe583e46497028054831691841691909117905560608301517f9e7b61f58c47dc699ac88507c4f5bb9f121c03808c5676a8078fe583e46497038054909216921691909117905550565b5f80546001600160a01b03191633178155600190815560028190556003805460ff19169091179055611f61806101bf5f395ff3fe608060405234801561000f575f80fd5b5060043610610153575f3560e01c80638da5cb5b116100bf578063da1f12ab11610079578063da1f12ab14610453578063da36d3db1461045b578063e2f535b814610464578063f39e8f011461047f578063f8be2f9e14610487578063fdf594b31461049a575f80fd5b80638da5cb5b146103885780639fe893bb146103b2578063a8e9d27914610410578063aa09d2e214610419578063b63589a114610438578063b82dcec714610440575f80fd5b8063443548821161011057806344354882146101fb5780635b2f55c71461020357806379f7e4a4146102275780637ac360dc146102555780637bddff89146102d157806380c4837a14610375575f80fd5b806302e3c32614610157578063078848651461016c5780630b89f7d414610187578063125d657d1461019a5780631d592704146101ad5780632fb245c2146101ca575b5f80fd5b61016a6101653660046119ab565b6104a2565b005b610174610568565b6040519081526020015b60405180910390f35b61016a6101953660046119dd565b6105b5565b61016a6101a8366004611a6c565b610786565b6003546101ba9060ff1681565b604051901515815260200161017e565b6101ba6101d83660046119ab565b5f9081526005602081815260408084206002548552909152909120015460ff1690565b6101ba610ba0565b6102166102113660046119ab565b610beb565b60405161017e959493929190611ac4565b61022f610caf565b60408051948552921515602085015290151591830191909152606082015260800161017e565b6102a2610263366004611b3a565b600560208181525f9384526040808520909152918352912080546001820154600283015460038401546004850154949095015492949193909260ff1686565b6040805196875260208701959095529385019290925260608401526080830152151560a082015260c00161017e565b61032f6102df3660046119ab565b60066020525f9081526040902080546001820154600283015460039093015463ffffffff808416946401000000008504821694600160401b810490921693600160601b90920460ff908116931687565b6040805163ffffffff98891681529688166020880152949096169385019390935260ff919091166060840152608083015260a082015290151560c082015260e00161017e565b61016a610383366004611b5a565b610d44565b5f5461039a906001600160a01b031681565b6040516001600160a01b03909116815260200161017e565b61032f6103c03660046119ab565b5f90815260066020526040902080546001820154600283015460039093015463ffffffff808416956401000000008504821695600160401b860490921694600160601b900460ff90811694931690565b61017460025481565b610174610427366004611bb4565b60076020525f908152604090205481565b610174611023565b61016a61044e366004611bcd565b611041565b612711610174565b61017460015481565b61039a7333347831500f1e73f0cccbbe71c7e21ca0100a4281565b6101ba6110b1565b6102166104953660046119ab565b6110e9565b61016a61121c565b5f546001600160a01b031633146104d45760405162461bcd60e51b81526004016104cb90611bec565b60405180910390fd5b5f811180156104e557506001548111155b6105265760405162461bcd60e51b8152602060048201526012602482015271125b9d985b1a59081cdd185d1a5bdb88125160721b60448201526064016104cb565b5f81815260046020526040808220600201805460ff191690555182917ff2d4f6c277f5b180a9e629416e8d0c6b6ca81567c106327ef8fb62d79debba8991a250565b5f8060015b60015481116105af575f8181526004602052604090206002015460ff161561059d578161059981611c28565b9250505b806105a781611c28565b91505061056d565b50919050565b5f546001600160a01b031633146105de5760405162461bcd60e51b81526004016104cb90611bec565b6001600160a01b0383165f90815260076020526040902054156106435760405162461bcd60e51b815260206004820152601a60248201527f53746174696f6e20616c7265616479207265676973746572656400000000000060448201526064016104cb565b60018054905f61065283611c28565b91905055506040518060a00160405280846001600160a01b0316815260200183838080601f0160208091040260200160405190810160405280939291908181526020018383808284375f92018290525093855250506001602080850182905260408086018590526060909501849052815484526004815293909220845181546001600160a01b0319166001600160a01b0390911617815592840151918301916106fc915082611cd2565b5060408281015160028301805460ff1916911515919091179055606083015160038301556080909201516004909101556001546001600160a01b0385165f818152600760205283902082905591517f9bf2d33296d6d69d9f7f107e0760c10b3c635bb99827a578111d3add903c1009906107799086908690611d92565b60405180910390a3505050565b335f90815260076020526040902054806107db5760405162461bcd60e51b815260206004820152601660248201527514dd185d1a5bdb881b9bdd081c9959da5cdd195c995960521b60448201526064016104cb565b5f8181526004602052604090206002015460ff166108305760405162461bcd60e51b815260206004820152601260248201527153746174696f6e206e6f742061637469766560701b60448201526064016104cb565b6108386110b1565b6108845760405162461bcd60e51b815260206004820152601e60248201527f4e6f7420696e2076616c6964207375626d697373696f6e20706572696f64000060448201526064016104cb565b335f90815260076020908152604080832054808452600580845282852060025486529093529220015460ff161561090c5760405162461bcd60e51b815260206004820152602660248201527f4461746120616c7265616479207375626d697474656420666f722074686973206044820152651c195c9a5bd960d21b60648201526084016104cb565b6127108663ffffffff1611156109645760405162461bcd60e51b815260206004820152601960248201527f496e76616c69642074656d70657261747572652072616e67650000000000000060448201526064016104cb565b6127108563ffffffff1611156109b55760405162461bcd60e51b8152602060048201526016602482015275496e76616c69642068756d69646974792072616e676560501b60448201526064016104cb565b6201adb08463ffffffff161115610a075760405162461bcd60e51b8152602060048201526016602482015275496e76616c69642070726573737572652072616e676560501b60448201526064016104cb565b60c88360ff161115610a5b5760405162461bcd60e51b815260206004820152601860248201527f496e76616c69642077696e642073706565642072616e6765000000000000000060448201526064016104cb565b5f610a65876114f8565b90505f610a71876114f8565b90505f610a7d876114f8565b90505f610a8987611510565b6040805160c0810182528681526020808201878152828401878152606084018681524260808601908152600160a087018181525f8f815260058089528a82206002805484529952999020975188559451908701559151938501939093559151600384015590516004830155519101805460ff19169115159190911790559050610b118461151f565b50610b1b8361151f565b50610b258261151f565b50610b2f8161151f565b505f858152600460208190526040822042600382015501805491610b5283611c28565b9190505550600254857fda2962bbd5f3e4a8236800dfd8a9c3ba4717058afb562d262fae9dadc76108f442604051610b8c91815260200190565b60405180910390a350505050505050505050565b6003545f9060ff16610bb25750600190565b5f6018610bc1610e1042611dd4565b610bcb9190611de7565b90506006610bda826005611dfa565b610be49190611de7565b1592915050565b60046020525f9081526040902080546001820180546001600160a01b039092169291610c1690611c54565b80601f0160208091040260200160405190810160405280929190818152602001828054610c4290611c54565b8015610c8d5780601f10610c6457610100808354040283529160200191610c8d565b820191905f5260205f20905b815481529060010190602001808311610c7057829003601f168201915b5050505060028301546003840154600490940154929360ff9091169290915085565b5f8080808060015b6001548111610d21575f8181526004602052604090206002015460ff168015610cfc57505f8181526005602081815260408084206002548552909152909120015460ff165b15610d0f5781610d0b81611c28565b9250505b80610d1981611c28565b915050610cb7565b50600254610d2d6110b1565b610d35610ba0565b91965094509250905090919293565b337333347831500f1e73f0cccbbe71c7e21ca0100a4214610db35760405162461bcd60e51b815260206004820152602360248201527f4f6e6c7920676174657761792063616e2063616c6c20746869732066756e637460448201526234b7b760e91b60648201526084016104cb565b5f8511610df75760405162461bcd60e51b8152602060048201526012602482015271125b9d985b1a59081c995c5d595cdd08125160721b60448201526064016104cb565b5f60015b6001548111610e65575f8181526004602052604090206002015460ff168015610e4057505f8181526005602081815260408084206002548552909152909120015460ff165b15610e535781610e4f81611c28565b9250505b80610e5d81611c28565b915050610dfb565b505f610e718287611e0d565b90505f610e7e8387611e0d565b90505f610e8b8487611e0d565b90505f610e988587611e0d565b90506040518060e001604052808563ffffffff1681526020018463ffffffff1681526020018363ffffffff1681526020018260ff1681526020014281526020018681526020016001151581525060065f60025481526020019081526020015f205f820151815f015f6101000a81548163ffffffff021916908363ffffffff1602179055506020820151815f0160046101000a81548163ffffffff021916908363ffffffff1602179055506040820151815f0160086101000a81548163ffffffff021916908363ffffffff1602179055506060820151815f01600c6101000a81548160ff021916908360ff1602179055506080820151816001015560a0820151816002015560c0820151816003015f6101000a81548160ff0219169083151502179055509050506002547f75abb95bd230155d109888a577e9c0dc5ad0addefb6c68b5486e28fd8f9d230c8642604051610ffb929190918252602082015260400190565b60405180910390a260028054905f61101283611c28565b919050555050505050505050505050565b5f6018611032610e1042611dd4565b61103c9190611de7565b905090565b5f546001600160a01b0316331461106a5760405162461bcd60e51b81526004016104cb90611bec565b6003805460ff19168215159081179091556040519081527f032e1ee8243540359aadf306d0d390e5568342b8fd627d1f2fb8cfc1984abc379060200160405180910390a150565b6003545f9060ff166110c35750600190565b5f60186110d2610e1042611dd4565b6110dc9190611de7565b9050610be4600682611de7565b5f60605f805f808611801561110057506001548611155b6111415760405162461bcd60e51b8152602060048201526012602482015271125b9d985b1a59081cdd185d1a5bdb88125160721b60448201526064016104cb565b5f8681526004602081905260409091208054600282015460038301549383015460018401805494956001600160a01b0390941694909360ff909316929190849061118a90611c54565b80601f01602080910402602001604051908101604052809291908181526020018280546111b690611c54565b80156112015780601f106111d857610100808354040283529160200191611201565b820191905f5260205f20905b8154815290600101906020018083116111e457829003601f168201915b50505050509350955095509550955095505091939590929450565b611224610ba0565b61127a5760405162461bcd60e51b815260206004820152602160248201527f4e6f7420696e20666f7265636173742067656e65726174696f6e20706572696f6044820152601960fa1b60648201526084016104cb565b6002545f9081526006602052604090206003015460ff16156112de5760405162461bcd60e51b815260206004820152601a60248201527f466f72656361737420616c72656164792067656e65726174656400000000000060448201526064016104cb565b5f806112e95f6114f8565b90505f6112f55f6114f8565b90505f6113015f6114f8565b90505f61130d5f6114f8565b905060015b60015481116113de575f8181526004602052604090206002015460ff16801561135757505f8181526005602081815260408084206002548552909152909120015460ff165b156113cc575f81815260056020908152604080832060025484529091529020805461138390879061152e565b955061139385826001015461152e565b94506113a384826002015461152e565b93506113bb836113b68360030154611563565b61152e565b9250866113c781611c28565b975050505b806113d681611c28565b915050611312565b5060038510156114415760405162461bcd60e51b815260206004820152602860248201527f4d696e696d756d20332073746174696f6e7320726571756972656420666f7220604482015267199bdc9958d85cdd60c21b60648201526084016104cb565b60408051600480825260a082019092525f916020820160808036833701905050905084815f8151811061147657611476611e2f565b6020908102919091010152838160018151811061149557611495611e2f565b602090810291909101015282816002815181106114b4576114b4611e2f565b602090810291909101015281816003815181106114d3576114d3611e2f565b60209081029190910101526114ef8163406241bd60e11b61156f565b50505050505050565b5f61150a8263ffffffff16600461157b565b92915050565b5f61150a8260ff16600261157b565b5f61152a8230611625565b5090565b5f826115405761153d5f6114f8565b92505b816115515761154e5f6114f8565b91505b61155c83835f611692565b9392505050565b5f61150a826004611747565b5f61155c83835f6117a9565b7f9e7b61f58c47dc699ac88507c4f5bb9f121c03808c5676a8078fe583e464970154604051639cd07acb60e01b81525f915f80516020611f0c833981519152916001600160a01b0390911690639cd07acb906115dd9087908790600401611e63565b6020604051808303815f875af11580156115f9573d5f803e3d5ffd5b505050506040513d601f19601f8201168201806040525081019061161d9190611e77565b949350505050565b5f5f80516020611f0c8339815191528054604051635ca4b5b160e11b8152600481018690526001600160a01b03858116602483015292935091169063b9496b62906044015f604051808303815f87803b158015611680575f80fd5b505af11580156114ef573d5f803e3d5ffd5b5f8082156116a55750600160f81b6116a8565b505f5b5f5f80516020611f0c833981519152600181015460405163022f65e760e31b815260048101899052602481018890526001600160f81b0319851660448201529192506001600160a01b03169063117b2f38906064016020604051808303815f875af1158015611719573d5f803e3d5ffd5b505050506040513d601f19601f8201168201806040525081019061173d9190611e77565b9695505050505050565b7f9e7b61f58c47dc699ac88507c4f5bb9f121c03808c5676a8078fe583e4649701546040516307227b9160e21b81525f915f80516020611f0c833981519152916001600160a01b0390911690631c89ee44906115dd9087908790600401611e63565b7f878245876662ba28a480c5ea71726db859fb50222b0a3d7cbbc21cfa336faf0080545f80516020611f0c8339815191528054604051637d6e912360e11b81529293926001600160a01b039091169063fadd22469061180c908990600401611ec8565b5f604051808303815f87803b158015611823575f80fd5b505af1158015611835573d5f803e3d5ffd5b5050506002820154604051633263b83b60e01b81526001600160a01b039091169150633263b83b9086906118719087908b908b90600401611eda565b5f604051808303818588803b158015611888575f80fd5b505af115801561189a573d5f803e3d5ffd5b50505050506118a983876118c4565b8154825f6118b683611c28565b919050555050509392505050565b5f8281527f878245876662ba28a480c5ea71726db859fb50222b0a3d7cbbc21cfa336faf0160205260409020547f878245876662ba28a480c5ea71726db859fb50222b0a3d7cbbc21cfa336faf00901561193157604051633f06d22b60e01b815260040160405180910390fd5b5f8381526001820160209081526040909120835161195192850190611957565b50505050565b828054828255905f5260205f20908101928215611990579160200282015b82811115611990578251825591602001919060010190611975565b5061152a9291505b8082111561152a575f8155600101611998565b5f602082840312156119bb575f80fd5b5035919050565b80356001600160a01b03811681146119d8575f80fd5b919050565b5f805f604084860312156119ef575f80fd5b6119f8846119c2565b9250602084013567ffffffffffffffff80821115611a14575f80fd5b818601915086601f830112611a27575f80fd5b813581811115611a35575f80fd5b876020828501011115611a46575f80fd5b6020830194508093505050509250925092565b803563ffffffff811681146119d8575f80fd5b5f805f8060808587031215611a7f575f80fd5b611a8885611a59565b9350611a9660208601611a59565b9250611aa460408601611a59565b9150606085013560ff81168114611ab9575f80fd5b939692955090935050565b60018060a01b03861681525f602060a0602084015286518060a08501525f5b81811015611aff5788810183015185820160c001528201611ae3565b505f60c0828601015260c0601f19601f83011685010192505050611b27604083018615159052565b6060820193909352608001529392505050565b5f8060408385031215611b4b575f80fd5b50508035926020909101359150565b5f805f805f60a08688031215611b6e575f80fd5b85359450611b7e60208701611a59565b9350611b8c60408701611a59565b9250611b9a60608701611a59565b9150611ba860808701611a59565b90509295509295909350565b5f60208284031215611bc4575f80fd5b61155c826119c2565b5f60208284031215611bdd575f80fd5b8135801515811461155c575f80fd5b6020808252600e908201526d139bdd08185d5d1a1bdc9a5e995960921b604082015260600190565b634e487b7160e01b5f52601160045260245ffd5b5f60018201611c3957611c39611c14565b5060010190565b634e487b7160e01b5f52604160045260245ffd5b600181811c90821680611c6857607f821691505b6020821081036105af57634e487b7160e01b5f52602260045260245ffd5b601f821115611ccd57805f5260205f20601f840160051c81016020851015611cab5750805b601f840160051c820191505b81811015611cca575f8155600101611cb7565b50505b505050565b815167ffffffffffffffff811115611cec57611cec611c40565b611d0081611cfa8454611c54565b84611c86565b602080601f831160018114611d33575f8415611d1c5750858301515b5f19600386901b1c1916600185901b178555611d8a565b5f85815260208120601f198616915b82811015611d6157888601518255948401946001909101908401611d42565b5085821015611d7e57878501515f19600388901b60f8161c191681555b505060018460011b0185555b505050505050565b60208152816020820152818360408301375f818301604090810191909152601f909201601f19160101919050565b634e487b7160e01b5f52601260045260245ffd5b5f82611de257611de2611dc0565b500490565b5f82611df557611df5611dc0565b500690565b8082018082111561150a5761150a611c14565b5f63ffffffff80841680611e2357611e23611dc0565b92169190910492915050565b634e487b7160e01b5f52603260045260245ffd5b60548110611e5f57634e487b7160e01b5f52602160045260245ffd5b9052565b8281526040810161155c6020830184611e43565b5f60208284031215611e87575f80fd5b5051919050565b5f815180845260208085019450602084015f5b83811015611ebd57815187529582019590820190600101611ea1565b509495945050505050565b602081525f61155c6020830184611e8e565b838152606060208201525f611ef26060830185611e8e565b905063ffffffff60e01b8316604083015294935050505056fe9e7b61f58c47dc699ac88507c4f5bb9f121c03808c5676a8078fe583e4649700a2646970667358221220cdafce7570bf59b3690460865df8082e4431756ee7b2e7605c124a42f6d6034764736f6c63430008180033",
  "linkReferences": {},
  "deployedLinkReferences": {}
}